{
  "contractName": "KYCContract",
  "abi": [
    {
      "anonymous": false,
      "inputs": [
        {
          "indexed": true,
          "internalType": "address",
          "name": "previousOwner",
          "type": "address"
        },
        {
          "indexed": true,
          "internalType": "address",
          "name": "newOwner",
          "type": "address"
        }
      ],
      "name": "OwnershipTransferred",
      "type": "event"
    },
    {
      "inputs": [],
      "name": "owner",
      "outputs": [
        {
          "internalType": "address",
          "name": "",
          "type": "address"
        }
      ],
      "stateMutability": "view",
      "type": "function"
    },
    {
      "inputs": [],
      "name": "renounceOwnership",
      "outputs": [],
      "stateMutability": "nonpayable",
      "type": "function"
    },
    {
      "inputs": [
        {
          "internalType": "address",
          "name": "newOwner",
          "type": "address"
        }
      ],
      "name": "transferOwnership",
      "outputs": [],
      "stateMutability": "nonpayable",
      "type": "function"
    },
    {
      "inputs": [
        {
          "internalType": "address",
          "name": "_address",
          "type": "address"
        }
      ],
      "name": "setKYCCompleted",
      "outputs": [],
      "stateMutability": "nonpayable",
      "type": "function"
    },
    {
      "inputs": [
        {
          "internalType": "address",
          "name": "_address",
          "type": "address"
        }
      ],
      "name": "setKYCRevoked",
      "outputs": [],
      "stateMutability": "nonpayable",
      "type": "function"
    },
    {
      "inputs": [
        {
          "internalType": "address",
          "name": "_address",
          "type": "address"
        }
      ],
      "name": "kycCompleted",
      "outputs": [
        {
          "internalType": "bool",
          "name": "",
          "type": "bool"
        }
      ],
      "stateMutability": "view",
      "type": "function"
    }
  ],
  "bytecode": "0x608060405234801561001057600080fd5b5061002d61002261003260201b60201c565b61003a60201b60201c565b6100fe565b600033905090565b60008060009054906101000a900473ffffffffffffffffffffffffffffffffffffffff169050816000806101000a81548173ffffffffffffffffffffffffffffffffffffffff021916908373ffffffffffffffffffffffffffffffffffffffff1602179055508173ffffffffffffffffffffffffffffffffffffffff168173ffffffffffffffffffffffffffffffffffffffff167f8be0079c531659141344cd1fd0a4f28419497f9722a3daafe3b4186f6b6457e060405160405180910390a35050565b6107c08061010d6000396000f3fe608060405234801561001057600080fd5b50600436106100625760003560e01c8063215b163814610067578063715018a6146100835780638da5cb5b1461008d578063df235fe4146100ab578063eeed69d9146100db578063f2fde38b146100f7575b600080fd5b610081600480360381019061007c91906105ee565b610113565b005b61008b6101ea565b005b610095610272565b6040516100a2919061062a565b60405180910390f35b6100c560048036038101906100c091906105ee565b61029b565b6040516100d29190610660565b60405180910390f35b6100f560048036038101906100f091906105ee565b6102f1565b005b610111600480360381019061010c91906105ee565b6103c7565b005b61011b6104bf565b73ffffffffffffffffffffffffffffffffffffffff16610139610272565b73ffffffffffffffffffffffffffffffffffffffff161461018f576040517f08c379a0000000000000000000000000000000000000000000000000000000008152600401610186906106d8565b60405180910390fd5b6000600160008373ffffffffffffffffffffffffffffffffffffffff1673ffffffffffffffffffffffffffffffffffffffff16815260200190815260200160002060006101000a81548160ff02191690831515021790555050565b6101f26104bf565b73ffffffffffffffffffffffffffffffffffffffff16610210610272565b73ffffffffffffffffffffffffffffffffffffffff1614610266576040517f08c379a000000000000000000000000000000000000000000000000000000000815260040161025d906106d8565b60405180910390fd5b61027060006104c7565b565b60008060009054906101000a900473ffffffffffffffffffffffffffffffffffffffff16905090565b6000600160008373ffffffffffffffffffffffffffffffffffffffff1673ffffffffffffffffffffffffffffffffffffffff16815260200190815260200160002060009054906101000a900460ff169050919050565b6102f96104bf565b73ffffffffffffffffffffffffffffffffffffffff16610317610272565b73ffffffffffffffffffffffffffffffffffffffff161461036d576040517f08c379a0000000000000000000000000000000000000000000000000000000008152600401610364906106d8565b60405180910390fd5b60018060008373ffffffffffffffffffffffffffffffffffffffff1673ffffffffffffffffffffffffffffffffffffffff16815260200190815260200160002060006101000a81548160ff02191690831515021790555050565b6103cf6104bf565b73ffffffffffffffffffffffffffffffffffffffff166103ed610272565b73ffffffffffffffffffffffffffffffffffffffff1614610443576040517f08c379a000000000000000000000000000000000000000000000000000000000815260040161043a906106d8565b60405180910390fd5b600073ffffffffffffffffffffffffffffffffffffffff168173ffffffffffffffffffffffffffffffffffffffff1614156104b3576040517f08c379a00000000000000000000000000000000000000000000000000000000081526004016104aa9061076a565b60405180910390fd5b6104bc816104c7565b50565b600033905090565b60008060009054906101000a900473ffffffffffffffffffffffffffffffffffffffff169050816000806101000a81548173ffffffffffffffffffffffffffffffffffffffff021916908373ffffffffffffffffffffffffffffffffffffffff1602179055508173ffffffffffffffffffffffffffffffffffffffff168173ffffffffffffffffffffffffffffffffffffffff167f8be0079c531659141344cd1fd0a4f28419497f9722a3daafe3b4186f6b6457e060405160405180910390a35050565b600080fd5b600073ffffffffffffffffffffffffffffffffffffffff82169050919050565b60006105bb82610590565b9050919050565b6105cb816105b0565b81146105d657600080fd5b50565b6000813590506105e8816105c2565b92915050565b6000602082840312156106045761060361058b565b5b6000610612848285016105d9565b91505092915050565b610624816105b0565b82525050565b600060208201905061063f600083018461061b565b92915050565b60008115159050919050565b61065a81610645565b82525050565b60006020820190506106756000830184610651565b92915050565b600082825260208201905092915050565b7f4f776e61626c653a2063616c6c6572206973206e6f7420746865206f776e6572600082015250565b60006106c260208361067b565b91506106cd8261068c565b602082019050919050565b600060208201905081810360008301526106f1816106b5565b9050919050565b7f4f776e61626c653a206e6577206f776e657220697320746865207a65726f206160008201527f6464726573730000000000000000000000000000000000000000000000000000602082015250565b600061075460268361067b565b915061075f826106f8565b604082019050919050565b6000602082019050818103600083015261078381610747565b905091905056fea264697066735822122085190931b1d696353c6c5127c3a0c7071c66f4fbfb19c3fb5dcb80ff1c8dcb8f64736f6c634300080b0033",
  "immutableReferences": {},
  "source": "// SPDX-License-Identifier: MIT\r\npragma solidity ^0.8.0;\r\n\r\nimport \"@openzeppelin/contracts/access/Ownable.sol\";\r\n\r\ncontract KYCContract is Ownable {\r\n    mapping(address => bool) private allowed;\r\n\r\n    function setKYCCompleted(address _address) public onlyOwner {\r\n        allowed[_address] = true;\r\n    }\r\n\r\n    function setKYCRevoked(address _address) public onlyOwner {\r\n        allowed[_address] = false;\r\n    }\r\n\r\n    function kycCompleted(address _address) public view returns(bool){\r\n        return allowed[_address];\r\n    }\r\n}\r\n",
  "sourcePath": "C:\\SYNE\\solidity-internship\\s06_tokenization\\contracts\\KYCContract.sol",
  "compiler": {
    "name": "solc",
    "version": "0.8.11+commit.d7f03943.Emscripten.clang"
  },
  "schemaVersion": "3.4.3",
  "updatedAt": "2022-02-14T11:31:49.682Z",
  "devdoc": {
    "kind": "dev",
    "methods": {
      "owner()": {
        "details": "Returns the address of the current owner."
      },
      "renounceOwnership()": {
        "details": "Leaves the contract without owner. It will not be possible to call `onlyOwner` functions anymore. Can only be called by the current owner. NOTE: Renouncing ownership will leave the contract without an owner, thereby removing any functionality that is only available to the owner."
      },
      "transferOwnership(address)": {
        "details": "Transfers ownership of the contract to a new account (`newOwner`). Can only be called by the current owner."
      }
    },
    "version": 1
  },
  "userdoc": {
    "kind": "user",
    "methods": {},
    "version": 1
  }
}